:03000000020006F5
:15005F00750F6375106875117575126E7513677514000200034B
:0300030002011ADD
:200074001201D67515007582D012020D75826B1202427582001202421201A9900064120248
:20009400D61201D67515007582D012020D75821A1202427582051202421201A990006412A0
:2000B40002D61201D67515007582D012020D75821C1202427582101202421201A990006483
:2000D4000202D61201D67515007582D012020D75823B1202421201F77515017582D01202DF
:2000F4000D75820112028F85820975820012028F858208AF097E00AC087D00EC4206ED42C1
:20011400078E0A8F0B2212019312031590053675F08012036690053D75F080120366120031
:200134007490054575F0801203661201D67515007582D012020D75823B1202421201F7759B
:2001540015007582D012020D85820E75820012028F858209AE097F008E828F831203AA7543
:1F017400820012028F8582081201A9AF097E00AC087D00EC4206ED42078E0A8F0B80FEFB
:1605360053746172743A00526561643A0A200053746570313A0080
:2001930075BE2753B3F753B4F753B3EF53B4EFD293D294D2C622C2C5D2C4C2C37F007D01E8
:2001B3007E0074F8B5BD02800FED4E70047F0180070DBD00ED0E80EAEFB401009200E4330D
:2001D300F5822274F8B5BD02800475820022C2C4D2C5C2C330C3FD7408B5BD01221201A997
:2001F30075820022C2C4D2C5C2C330C3FD7410B5BD01221201A975820022AF82C2C5C2C415
:200213008FBCC2C330C3FDE51560127440B5BD0280071201A975820022758201227418B5C0
:20023300BD0280071201A975820022758201228582BCC2C330C3FD7428B5BD01221201A951
:2002530075820022AD82AE83AFF07C00C3EC95165029EC2DF9E43EFA8F0389828A838BF0D1
:200273001204A8F5BCC2C330C3FD7428B5BD0280071201A9758200220C80D122E582FF60D6
:2002930019D2C2C2C330C3FD7450B5BD0280071201A97582002285BC8222C2C2C2C330C3B4
:1302B300FD7458B5BD0280071201A97582002285BC8222BA
:2002C6004389015389FD438E085389FB5389F722AE82AF83EE4F60121EBEFF011FC007C03A
:2002E600061202F1D006D00780EA22758C00758A00D28CAF8C7E00AC8A7D00EC2EFEED3FA6
:0F030600FFC3EE9480EF648094BE40E7C28C2268
:2003150043C42053C4F8539CFD75C6FF75C5E643C40853877FD28653B1BF43B240D28753E8
:20033500B17F53B27F5387BFC29FD29ED29C228582992285998222D2AC22C2AC22E582F4EB
:20035500529822E582559860047582012275820022AD82AE83AFF08D828E838FF01204A835
:20037500FC60318C99758202C007C006C005120358E582D005D006D00760EA758202C0070B
:20039500C006C005120352D005D006D0070DBD00C60E80C322AE82AF837D008D178D188D1C
:2003B500198D1A8D1BEE4F7004F5177D01EE4F603DED2417F9751C0A751D008E828F83C07B
:2003D50007C006C005C0011204C4AB82D001D005D006D007A7030D751C0A751D008E828FD8
:2003F50083C0051204FAAE82AF83D00580BF8D07EF60298F06EE142417F9870674302EF5EF
:1D04150099758202C007120358E582D00760F2758202C007120352D0071F80D422E1
:06003500E478FFF6D8FD9F
:200013007900E94400601B7A0090054C780175A000E493F2A308B8000205A0D9F4DAF27542
:02003300A0FF2C
:20043200E51C451D60467A01E51C25E0F51CE51D334012F51DE582951CE583951D40030AF7
:2004520080E6C3E51D13F51DE51C13F51CC3E582951CF5F0E583951D4005F58385F082C3C4
:0D047200E51D13F51DE51C13F51CDAE12254
:20047F007A10E4FBFCE58225E0F582E58333F583EB33FBEC33FCEB951CF5F0EC951D400669
:09049F00FCABF0438201DADD221E
:20003B007800E84400600A790175A000E4F309D8FC7800E84400600C7900900001E4F0A3C3
:04005B00D8FCD9FAFA
:0D000600758120120532E5826003020003BF
:1C04A80020F71430F6148883A88220F507E6A88375830022E280F7E49322E02263
:2004C400C2D5E58330E70DD2D5E4C39582F582E49583F583E51D30E70BE4C3951CF51CE434
:1604E400951DF51D12043230D50BE4C39582F582E49583F583221B
:2004FA00C2D5E58330E70DD2D5E4C39582F582E49583F583E51D30E70DB2D5E4C3951CF575
:18051A001CE4951DF51D12047F30D50BE4C39582F582E49583F5832295
:0405320075820022AC
:00000001FF
