:03000000020006F5
:15005F00750F6375106875117575126E7513677514000200034B
:0300030002011ADD
:200074001201BE7515007582D01201F575826B12022A75820012022A1201919000641202C1
:20009400BE1201BE7515007582D01201F575821A12022A75820512022A1201919000641231
:2000B40002BE1201BE7515007582D01201F575821C12022A75821012022A12019190006414
:2000D4000202BE1201BE7515007582D01201F575823B12022A1201DF7515017582D0120159
:2000F400F5758201120277858209758200120277858208AF097E00AC087D00EC4206ED4209
:20011400078E0A8F0B2212017B1202FD90051E75F08012034E90052575F08012034E1201C1
:20013400BE7515017582A11201F5758201120277E582F50C758200120277E582F50D1201D9
:20015400911200741201BE7515007582D01201F575823B12022A1201DF7515007582D01285
:0701740001F585820E80FEFB
:0F051E0053746172743A00526561643A0A2000A6
:20017B0075BE2753B3F753B4F753B3EF53B4EFD293D294D2C622C2C5D2C4C2C37F007D0100
:20019B007E0074F8B5BD02800FED4E70047F0180070DBD00ED0E80EAEFB401009200E43325
:2001BB00F5822274F8B5BD02800475820022C2C4D2C5C2C330C3FD7408B5BD0122120191C7
:2001DB0075820022C2C4D2C5C2C330C3FD7410B5BD012212019175820022AF82C2C5C2C445
:2001FB008FBCC2C330C3FDE51560127440B5BD02800712019175820022758201227418B5F1
:20021B00BD02800712019175820022758201228582BCC2C330C3FD7428B5BD012212019199
:20023B0075820022AD82AE83AFF07C00C3EC95165029EC2DF9E43EFA8F0389828A838BF0E9
:20025B00120490F5BCC2C330C3FD7428B5BD028007120191758200220C80D122E582FF601E
:20027B0019D2C2C2C330C3FD7450B5BD0280071201917582002285BC8222C2C2C2C330C3E4
:13029B00FD7458B5BD0280071201917582002285BC8222EA
:2002AE004389015389FD438E085389FB5389F722AE82AF83EE4F60121EBEFF011FC007C052
:2002CE00061202D9D006D00780EA22758C00758A00D28CAF8C7E00AC8A7D00EC2EFEED3FD6
:0F02EE00FFC3EE9480EF648094BE40E7C28C2281
:2002FD0043C42053C4F8539CFD75C6FF75C5E643C40853877FD28653B1BF43B240D2875301
:20031D00B17F53B27F5387BFC29FD29ED29C228582992285998222D2AC22C2AC22E582F403
:20033D00529822E582559860047582012275820022AD82AE83AFF08D828E838FF012049065
:20035D00FC60318C99758202C007C006C005120340E582D005D006D00760EA758202C0073B
:20037D00C006C00512033AD005D006D0070DBD00C60E80C322AE82AF837D008D178D188D4C
:20039D00198D1A8D1BEE4F7004F5177D01EE4F603DED2417F9751C0A751D008E828F83C093
:2003BD0007C006C005C0011204ACAB82D001D005D006D007A7030D751C0A751D008E828F08
:2003DD0083C0051204E2AE82AF83D00580BF8D07EF60298F06EE142417F9870674302EF51F
:1D03FD0099758202C007120340E582D00760F2758202C00712033AD0071F80D4222A
:06003500E478FFF6D8FD9F
:200013007900E94400601B7A0090052D780175A000E493F2A308B8000205A0D9F4DAF27561
:02003300A0FF2C
:20041A00E51C451D60467A01E51C25E0F51CE51D334012F51DE582951CE583951D40030A0F
:20043A0080E6C3E51D13F51DE51C13F51CC3E582951CF5F0E583951D4005F58385F082C3DC
:0D045A00E51D13F51DE51C13F51CDAE1226C
:200467007A10E4FBFCE58225E0F582E58333F583EB33FBEC33FCEB951CF5F0EC951D400681
:09048700FCABF0438201DADD2236
:20003B007800E84400600A790175A000E4F309D8FC7800E84400600C7900900001E4F0A3C3
:04005B00D8FCD9FAFA
:0D00060075812012051AE5826003020003D7
:1C04900020F71430F6148883A88220F507E6A88375830022E280F7E49322E0227B
:2004AC00C2D5E58330E70DD2D5E4C39582F582E49583F583E51D30E70BE4C3951CF51CE44C
:1604CC00951DF51D12041A30D50BE4C39582F582E49583F583224B
:2004E200C2D5E58330E70DD2D5E4C39582F582E49583F583E51D30E70DB2D5E4C3951CF58D
:180502001CE4951DF51D12046730D50BE4C39582F582E49583F58322C5
:04051A0075820022C4
:00000001FF
