:03000000020006F5
:10005F0075087E750981750A91750BA9750C9175D7
:0B006F000D81750E81750F7E020003ED
:0300030002007A7E
:10007A001201D0758209120210758200120210D282
:10008A0091C29175820A120210758203120210D26D
:10009A0091C29175820B120210758207120210D258
:1000AA0091C29175820C120210758201120210D24D
:1000BA0091C29175820F120210758200120210D23B
:1000CA0091C291758201120210758200120210D239
:1000DA0091C291758202120210758200120210D228
:1000EA0091C291758203120210758200120210D217
:1000FA0091C291758204120210758200120210D206
:10010A0091C291758205120210758200120210D2F4
:10011A0091C291758206120210758200120210D2E3
:10012A0091C291758207120210758200120210D2D2
:10013A0091C291758208120210758200120210D2C1
:10014A0091C2917F008F06EE04F582C007C00612A5
:10015A000210D0067407C39E2408F987821202107F
:10016A00D007D291C2910FBF080040D980FE438EBA
:10017A00085389F043890122AE82AF83E510C45443
:10018A00F0FD74FFC39DFDAB10E511C454F0CBC460
:10019A00CB6BCB54F0CB6BFC8B018C02E4FBFC7475
:1001AA00FFC39974FF9AFAE49BE49C8A04EE4F60B9
:1001BA00148D8A8C8CD28C108D0280FBC28C1EBE50
:1001CA00FF011F80E82243F31043F40853F37F53DF
:1001DA00F3DF53F3F753F3FB53F3FC75C7AA75C761
:1001EA005575910175F30075C7AA75C755759100C4
:1001FA0043B10253B2FD53B1FE43B20153B1FE43C0
:10020A00B20143F340228582F5E5F430E7FB53F46B
:02021A007F2241
:06003500E478FFF6D8FD9F
:100013007900E94400601B7A00900220780075A003
:1000230000E493F2A308B8000205A0D9F4DAF2754C
:02003300A0FF2C
:10003B007800E84400600A790075A000E4F309D861
:10004B00FC7800E84400600C7900900000E4F0A319
:04005B00D8FCD9FAFA
:0D00060075811112021CE5826003020003E7
:04021C0075820022C5
:00000001FF
