:03000000020006F5
:09005F0075080F7509FF0200038A
:0300030002010EE9
:10006800AF82C007120229120264D0078F821202DF
:10007800E702023AE58260067E087F0080047E007F
:100088007F00E50A24F850067C077D008004AC0A4E
:100098007D00EC4EF50874804508F582020068AFD3
:1000A80082C007120229D007850B0A8F8202007CC2
:1000B800AF82758244C007120068120264D00774C8
:1000C800035F44C0F5821202E7850C821202E70240
:1000D800023AAF8274F6250D4009E50D9004A49309
:1000E800FE80027E00BF01028E098E0C8F82020004
:1000F800B87F00750C008F82C0071200B8D0070FB8
:10010800BF040040EE2253B3DF43B4201201D112E2
:1001180000F9750B017582011200A7D295850E8230
:10012800850F837512E87513031203D8AE827F001A
:1001380075120A8F138E828F8312046AAE828E0D17
:100148007582001200DA850E82850F837512647538
:1001580013001203D8AE827F0075120A8F138E82A5
:100168008F8312046AAE828E0D7582011200DA85C1
:100178000E82850F8375120A7513001203D8AE829A
:100188007F0075120A8F138E828F8312046AAE82E3
:100198008E0D7582021200DAAF0E7E0075120A8E7D
:1001A800138F828E8312046AAE828E0D75820312BB
:1001B80000DA7512E87513039003E81201DB050EE7
:0901C800E4B50E02050F02012549
:0A04A4003F065B4F666D7D077F6F1A
:1001D100438E085389F043890122AE82AF83E51231
:1001E100C454F0FD74FFC39DFDAB12E513C454F07C
:1001F100CBC4CB6BCB54F0CB6BFC8B018C02E4FBFF
:10020100FC74FFC39974FF9AFAE49BE49C8A04EEA0
:100211004F60148D8A8C8CD28C108D0280FBC28C25
:100221001EBEFF011F80E82253B3FB53B4FB53B33F
:10023100FD53B4FDD291D29222C29275120175136F
:10024100009000051201DBD2917512017513009027
:1002510000051201DBD292751201751300900005A1
:100261000201DBD291751201751300900005120194
:10027100DBD2927512017513009000051201DBC2E9
:10028100927512017513009000051201DBC2917580
:1002910012017513009000050201DBC2C4D2C5C270
:1002A100C330C3FD7410B5BD012212023A7582003C
:1002B10022AF82C2C5C2C48FBCC2C330C3FDE51028
:1002C10060127440B5BD02800712023A75820022A5
:1002D100758201227418B5BD02800712023A758237
:1002E100002275820122AF827E00EF30E004D292BB
:1002F1008002C292751201751300900005C007C0FB
:10030100061201DBD29175120175130090000512DE
:1003110001DBD006D007C291EFC313FF0EBE080068
:1003210040C8C2927512017513009000051201DBDD
:10033100D2917512017513009000051201DBC29173
:100341007512017513009000051201DB3092047FD4
:100351000080027F01751201751300900005C0072E
:100361001201DBD0078F8222AD82AE83AFF07C0019
:10037100C3EC95115029EC2DF9E43EFA8F038982E3
:100381008A838BF012044EF5BCC2C330C3FD7428BE
:10039100B5BD02800712023A758200220C80D1227B
:1003A100E582FF6019D2C2C2C330C3FD7450B5BD2E
:1003B10002800712023A7582002285BC8222C2C2E3
:1003C100C2C330C3FD7458B5BD02800712023A752D
:1003D10082002285BC82227A10E4FBFCE58225E0C2
:1003E100F582E58333F583EB33FBEC33FCEB9512BC
:1003F100F5F0EC95134006FCABF0438201DADD2207
:06003500E478FFF6D8FD9F
:100013007900E94400601B7A009004AE780075A073
:1000230000E493F2A308B8000205A0D9F4DAF2754C
:02003300A0FF2C
:10040100E512451360467A01E51225E0F512E51380
:10041100334012F513E5829512E583951340030AE3
:1004210080E6C3E51313F513E51213F512C3E58254
:100431009512F5F0E58395134005F58385F082C3A8
:0D044100E51313F513E51213F512DAE122AD
:10003B007800E84400600A790075A000E4F309D861
:10004B00FC7800E84400600C7900900000E4F0A319
:04005B00D8FCD9FAFA
:0D0006007581131204A0E58260030200035F
:10044E0020F71430F6148883A88220F507E6A883D7
:10045E0075830022E280F7E49322E022C2D5E58381
:10046E0030E70DD2D5E4C39582F582E49583F5830A
:10047E00E51330E70BE4C39512F512E49513F5136B
:10048E0012040130D50BE4C39582F582E49583F511
:06049E008322758200229A
:00000001FF
