:03000000020006F5
:03005F0002000399
:0300030002006296
:2000620053B3DF43B4201200D875823912010A75820212011EE58260F675820212011890B0
:0700820003E812009980E27F
:200089004389015389FD438E085389FB5389F722AE82AF83EE4F60121EBEFF011FC007C079
:2000A900061200B4D006D00780EA22758C00758A00D28CAF8C7E00AC8A7D00EC2EFEED3F24
:0F00C900FFC3EE9480EF648094BE40E7C28C22A8
:2000D80043C42053C4F885C4C4539CFD75C6FF75C5F743C408438780D28653B1BF43B240C5
:2000F800D28753B17F53B27F5387BFC29FD29ED29C228582992285998222D2AC22C2AC22DA
:14011800E582F4529822E58255986004758201227582002281
:06003500E478FFF6D8FD9F
:200013007900E94400601B7A00900130780175A000E493F2A308B8000205A0D9F4DAF27562
:02003300A0FF2C
:20003B007800E84400600A790175A000E4F309D8FC7800E84400600C7900900001E4F0A3C3
:04005B00D8FCD9FAFA
:0D00060075810712012CE5826003020003E2
:04012C0075820022B6
:00000001FF
