:03000000020006F5
:0F005F00750800750900750A19750B86020003F4
:0300030002006E8A
:10006E001204E11200C81203C790064F75F08012F9
:10007E00041890065675F08012041875120C75133C
:10008E00007514407515027582A11201AEE58270DD
:10009E000280FEAE0C7F008E828F8312045C90066F
:1000AE005E75F080120418AE0D7F008E828F831263
:0A00BE00045C9003E81204F180FED8
:10064F0053746172743A00526561643A0A20002C47
:01065F00009A
:1000C80075BE2753B3F753B4F753B3EF53B4EFD216
:1000D80093D294D2C622AF8274F8B5BD028004755B
:1000E800820022C2C4D2C5C2C37E007C017D00202A
:1000F800C30FEC4D70047E0180070CBC00F10D802D
:10010800EEEE600712039A758200227408B5BD02EC
:10011800800712039A75820022C2C5C2C48FBCC26E
:10012800C37F007D017E0020C30FED4E70047F0168
:1001380080070DBD00F10E80EEEF600712039A757F
:100148008200227418B5BD02800712039A758200D6
:10015800227F00C3EF9511504AEF250EFCE4350FBE
:10016800FDAE108C828D838EF01205C1F5BCC2C322
:100178007E007C017D0020C30FEC4D70047E018061
:10018800070CBC00F10D80EEEE600712039A758231
:1001980000227428B5BD02800712039A75820022D6
:1001A8000F80B002039AAF8274F8B5BD028004755F
:1001B800820022C2C4D2C5C2C37E007C017D002059
:1001C800C30FEC4D70047E0180070CBC00F10D805C
:1001D800EEEE600712039A758200227408B5BD021C
:1001E800800712039A75820022C2C5C2C48FBCC29E
:1001F800C37F007D017E0020C30FED4E70047F0198
:1002080080070DBD00F10E80EEEF600712039A75AE
:100218008200227440B5BD02800712039A758200DD
:10022800227F007E00AC157D001CBCFF011D8E02E4
:100238007B00C3EA9CEB64808DF063F08095F050FE
:100248004ED2C2C2C37D007B017C0020C30FEB4CA1
:1002580070047D0180070BBB00F10C80EEED600798
:1002680012039A758200227450B5BD0280071203EA
:100278009A75820022EE2512FBE43513FCAD148B2F
:10028800828C838DF0E5BC1205300E8E078096C2F5
:10029800C2C2C37E007C017D0020C30FEC4D7004F8
:1002A8007E0180070CBC00F10D80EEEE60071203A2
:1002B8009A758200227458B5BD02800712039A7598
:1002C800820022EF2512FFE43513FEAD148F828ED3
:1002D800838DF0E5BC12053002039AAF8243070113
:1002E80074F8B5BD02800475820022C2C4D2C5C2AA
:1002F800C37E007C017D0020C30FEC4D70047E019D
:1003080080070CBC00F10D80EEEE600712039A75B1
:100318008200227408B5BD02800712039A75820014
:1003280022C2C5C2C48FBCC2C37F007D017E00202B
:10033800C30FED4E70047F0180070DBD00F10E80E4
:10034800EEEF600712039A758200227440B5BD0271
:10035800800712039A75820022C2C2C2C37F007D41
:10036800017E0020C30FED4E70047F0180070DBD94
:1003780000F10E80EEEF600712039A758200227476
:1003880058B5BD02800712039A75820022E5BC02A7
:10039800039AC2C5D2C4C2C37F007D017E0074F82F
:1003A800B5BD02800FED4E70047F0180070DBD00C2
:1003B800ED0E80EAEFB401009200E433F5822243A7
:1003C800C42053C4F8539CFD75C6FF75C5E643C4E5
:1003D8000853877FD28653B1BF43B240D28753B107
:1003E8007F53B27F5387BFC29FD29ED29C22858201
:1003F800992285998222D2AC22C2AC22E582F4529B
:100408009822E5825598600475820122758200223F
:10041800AD82AE83AFF08D828E838FF01205C1FC62
:1004280060318C99758202C007C006C00512040AA3
:10043800E582D005D006D00760EA758202C007C001
:1004480006C005120404D005D006D0070DBD00C6AD
:100458000E80C322AE82AF8375160075170075181B
:1004680000751900751A007D00EE4F603DED2416E9
:10047800F9751B0A751C008E828F83C007C006C0E1
:1004880005C0011205DDAB82D001D005D006D0072A
:10049800A7030D751B0A751C008E828F83C0051279
:1004A8000613AE82AF83D00580BF8D07EF60298F1A
:1004B80006EE142416F9870674302EF59975820213
:1004C800C00712040AE582D00760F2758202C007ED
:1004D800120404D0071F80D4224389015389FD43A5
:1004E8008E085389FB5389F722AE82AF83EE4F60A3
:1004F800121EBEFF011FC007C00612050CD006D091
:100508000780EA22758C00758A00D28CAF8C7E0039
:10051800AC8A7D00EC2EFEED3FFFC3EE9480EF64C5
:080528008094BE40E7C28C2262
:06003500E478FFF6D8FD9F
:100013007900E94400601B7A00900660780175A0BE
:1000230000E493F2A308B8000205A0D9F4DAF2754C
:02003300A0FF2C
:1005300020F71130F6138883A88220F509F6A883E6
:100540007583002280FEF280F5F022E51B451C60D9
:10055000467A01E51B25E0F51BE51C334012F51C2E
:10056000E582951BE583951C40030A80E6C3E51CE4
:1005700013F51CE51B13F51BC3E582951BF5F0E590
:1005800083951C4005F58385F082C3E51C13F51C9B
:10059000E51B13F51BDAE1227A10E4FBFCE582256A
:1005A000E0F582E58333F583EB33FBEC33FCEB952D
:1005B0001BF5F0EC951C4006FCABF0438201DADD44
:0105C0002218
:10003B007800E84400600A790175A000E4F309D860
:10004B00FC7800E84400600C7900900001E4F0A318
:04005B00D8FCD9FAFA
:0D00060075812012064BE5826003020003A5
:1005C10020F71430F6148883A88220F507E6A88363
:1005D10075830022E280F7E49322E022C2D5E5830D
:1005E10030E70DD2D5E4C39582F582E49583F58396
:1005F100E51C30E70BE4C3951BF51BE4951CF51CCA
:1006010012054B30D50BE4C39582F582E49583F551
:100611008322C2D5E58330E70DD2D5E4C39582F5B7
:1006210082E49583F583E51C30E70DB2D5E4C395EB
:100631001BF51BE4951CF51C12059830D50BE4C382
:0E0641009582F582E49583F58322758200226E
:00000001FF
