:040000000200413287
:01000B0032C2
:0100130032BA
:01001B0032B2
:0100230032AA
:01002B0032A2
:01003300329A
:03003B000200B907
:09009A0075080975090002003E19
:03003E000200BD00
:1000A30043E90843EA0243E90143E90443EA01431C
:1000B300E90143E9022253ECFD3243B32043B40286
:1000C300C2959000321200E5D2959000321200E5FD
:1000D30080EE4389015389FD438E085389FB53897D
:1000E300F722AE82AF83EE4F60121EBEFF011FC028
:1000F30007C006120100D006D00780EA22758C00E3
:10010300758A00D28CAF8C7E00AC8A7D00EC2EFE0B
:10011300ED3FFFC3EE9480EF648094BE40E7C28C52
:0101230022B9
:06007000E478FFF6D8FD64
:10004E007900E94400601B7A00900128780175A0C0
:10005E0000E493F2A308B8000205A0D9F4DAF27511
:02006E00A0FFF1
:100076007800E84400600A790175A000E4F309D825
:10008600FC7800E84400600C7900900001E4F0A3DD
:04009600D8FCD9FABF
:0D004100758109120124E582600302003E72
:0401240075820022BE
:00000001FF
