:040000000200413287
:01000B0032C2
:0100130032BA
:01001B0032B2
:0100230032AA
:01002B0032A2
:01003300329A
:03003B000200BA06
:03009A0002003E23
:03003E000200A716
:20009D0043E90843EA0243E9012253B3DF43B420C29512009D43B31053B4EF80FE53ECFDD9
:0300BD00D29532A7
:2000C000438E085389F75389FB5389FD43890122AE82AF83E508C454F0FD74FFC39DFDAB06
:2000E00008E509C454F0CBC4CB6BCB54F0CB6BFC8B018C02E4FBFC74FFC39974FF9AFAE44D
:1E0100009BE49C8A04EE4F60148D8A8C8CD28C108D0280FBC28C1EBEFF011F80E8220D
:06007000E478FFF6D8FD64
:20004E007900E94400601B7A00900122780175A000E493F2A308B8000205A0D9F4DAF27535
:02006E00A0FFF1
:200076007800E84400600A790175A000E4F309D8FC7800E84400600C7900900001E4F0A388
:04009600D8FCD9FABF
:0D00410075810912011EE582600302003E78
:04011E0075820022C4
:00000001FF
