:03000000020006F5
:06005F00752134020003CC
:0300030002006D8B
:10006500E493A3E493F58222750DCC750EFF75829A
:100075000112020E1201B690049375F0801202A6C9
:10008500900200120065858221AE217F008E828F4D
:10009500831202FC750DE8750E039003E81201C08A
:1000A50080DE858264858365AC64E565A2E7CC3333
:1000B500CC33CC5401A2E0CC13CC13CCFD7B008B0C
:1000C500027F00EA2CFAEF3DFF8A828F83C005C0CC
:1000D50004C003120065AF82D003D004D005EB2421
:1000E50023F8A6070BBB800040D5747F55642423F5
:1000F500F8A6638C078FA68D068EA775AEFFA2AFF7
:100105009200C2AF75C7AA75C755439F01A2009259
:10011500AFA2AF9200C2AF75C7AA75C75543A50177
:10012500A20092AF75AF22A2AF9200C2AF75C7AA67
:1001350075C75543A401A20092AFA2AF9200C2AF0A
:1001450075C7AA75C755439F01A20092AFA2AF928A
:1001550000C2AF75C7AA75C75543A501A20092AFE6
:1001650075AF217D00ED2FF5A68EA7ED2423F98728
:10017500AEA2AF9200C2AF75C7AA75C75543A40119
:10018500A20092AF0DBD800040DBA2AF9200C2AFCE
:1001950075C7AA75C75553A5FEA20092AFA2AF9227
:1001A50000C2AF75C7AA75C755539FFEA20092AF8F
:0101B5002227
:080492003853746172743A00E2
:1001B600438E085389F043890122AE82AF83E50D51
:1001C600C454F0FD74FFC39DFDAB0DE50EC454F0A1
:1001D600CBC4CB6BCB54F0CB6BFC8B018C02E4FB1A
:1001E600FC74FFC39974FF9AFAE49BE49C8A04EEBC
:1001F6004F60148D8A8C8CD28C108D0280FBC28C41
:100206001EBEFF011F80E822AF82BF0002800ABF28
:1002160001028017BF023980287598504389204310
:100226008780438E1053C4DFD28E22759850538731
:100236007F53C4F843C420850EC6850DC543C40844
:100246002275F85075C480850EC6850DC543C40851
:1002560022AF82BF00028005BF01098004850D9987
:1002660022850D9A22AF827E00BF00028005BF0163
:100276001280093098FDAE99C298800730F8FDAE1D
:100286009AC2F88E8222D2AC22C2AC22E582F45205
:100296009822E582559860047582012275820022B3
:1002A600AD82AE83AFF08D828E838FF0120404FC94
:1002B60060438C0D758200C007C006C00512025748
:1002C600D005D006D007758202C007C006C0051249
:1002D6000298E582D005D006D00760EA758202C092
:1002E60007C006C005120292D005D006D0070DBD84
:1002F60000B40E80B122AE82AF837D008D088D09D9
:100306008D0A8D0B8D0CEE4F7004F5087D01EE4FB6
:10031600603DED2408F9750D0A750E008E828F83F7
:10032600C007C006C005C001120420AB82D001D0B0
:1003360005D006D007A7030D750D0A750E008E822F
:100346008F83C005120456AE82AF83D00580BF8D61
:1003560007EF60338F06EE142408F9870674302EF3
:10036600F50D758200C007120257D007758202C0CC
:1003760007120298E582D00760F2758202C0071262
:080386000292D0071F80CA2279
:06003500E478FFF6D8FD9F
:100013007900E94400601B7A0090049A780075A087
:1000230000E493F2A308B8000205A0D9F4DAF2754C
:02003300A0FF2C
:10038E00E50D450E60467A01E50D25E0F50DE50E0D
:10039E00334012F50EE582950DE583950E40030A66
:1003AE0080E6C3E50E13F50EE50D13F50DC3E582DC
:1003BE00950DF5F0E583950E4005F58385F082C326
:1003CE00E50E13F50EE50D13F50DDAE1227A10E4C4
:1003DE00FBFCE58225E0F582E58333F583EB33FB09
:1003EE00EC33FCEB950DF5F0EC950E4006FCABF006
:0603FE00438201DADD225A
:10003B007800E84400600A790075A000E4F309D861
:10004B00FC7800E84400600C7900900000E4F0A319
:04005B00D8FCD9FAFA
:0D00060075816512048EE58260030200031F
:1004040020F71430F6148883A88220F507E6A88321
:1004140075830022E280F7E49322E022C2D5E583CB
:1004240030E70DD2D5E4C39582F582E49583F58354
:10043400E50E30E70BE4C3950DF50DE4950EF50ECE
:1004440012038E30D50BE4C39582F582E49583F5CF
:100454008322C2D5E58330E70DD2D5E4C39582F576
:1004640082E49583F583E50E30E70DB2D5E4C395B8
:100474000DF50DE4950EF50E1203DB30D50BE4C338
:0E0484009582F582E49583F58322758200222D
:00000001FF
