:03000000020006F5
:06005F00750E0002000313
:0300030002006593
:200065001200E512026790049B75F0801202B89004A275F0801202B8120128750F0075828C
:20008500D012015F75823B120194120149750F017582D012015F85820E7582011201E185A0
:2000A50082097582001201E18582081200FBAE0E7F008E828F8312030F1202FCAE097F00E2
:2000C5008E828F8312030F1202FCAE087F008E828F8312030F1202FC9003E812022880986B
:0D049B0053746172743A00526561643A0056
:2000E50075BE2753B3F753B4F753B3EF53B4EFD293D294D2C622C2C5D2C4C2C37F007D0197
:200105007E0074F8B5BD02800FED4E70047F0180070DBD00ED0E80EAEFB401009200E433BB
:20012500F5822274F8B5BD02800475820022C2C4D2C5C2C330C3FD7408B5BD01221200FBF4
:2001450075820022C2C4D2C5C2C330C3FD7410B5BD01221200FB75820022AF82C2C5C2C472
:200165008FBCC2C330C3FDE50F60127440B5BD0280071200FB75820022758201227418B524
:20018500BD0280071200FB75820022758201228582BCC2C330C3FD7428B5BD01221200FB5E
:2001A50075820022AD82AE83AFF07C00C3EC95105029EC2DF9E43EFA8F0389828A838BF086
:2001C50012040DF5BCC2C330C3FD7428B5BD0280071200FB758200220C80D122E582FF60CF
:2001E50019D2C2C2C330C3FD7450B5BD0280071200FB7582002285BC8222C2C2C2C330C312
:13020500FD7458B5BD0280071200FB7582002285BC822217
:200218004389015389FD438E085389FB5389F722AE82AF83EE4F60121EBEFF011FC007C0E8
:2002380006120243D006D00780EA22758C00758A00D28CAF8C7E00AC8A7D00EC2EFEED3F02
:0F025800FFC3EE9480EF648094BE40E7C28C2217
:2002670043C42053C4F8539CFD75C6FF75C5E643C40853877FD28653B1BF43B240D2875397
:20028700B17F53B27F5387BFC29FD29ED29C228582992285998222D2AC22C2AC22E582F49A
:2002A700529822E582559860047582012275820022AD82AE83AFF08D828E838FF012040D7F
:2002C700FC60318C99758202C007C006C0051202AAE582D005D006D00760EA758202C00769
:2002E700C006C0051202A4D005D006D0070DBD00C60E80C32275990A7582021202AAE582F9
:2003070060F67582020202A4AE82AF837D008D118D128D138D148D15EE4F7004F5117D01AB
:20032700EE4F603DED2411F975160A7517008E828F83C007C006C005C001120429AB82D02F
:2003470001D005D006D007A7030D75160A7517008E828F83C00512045FAE82AF83D0058028
:20036700BF8D07EF60298F06EE142411F9870674302EF599758202C0071202AAE582D0073D
:1003870060F2758202C0071202A4D0071F80D42230
:06003500E478FFF6D8FD9F
:200013007900E94400601B7A009004A8780175A000E493F2A308B8000205A0D9F4DAF275E7
:02003300A0FF2C
:20039700E516451760467A01E51625E0F516E517334012F517E5829516E583951740030AC3
:2003B70080E6C3E51713F517E51613F516C3E5829516F5F0E58395174005F58385F082C384
:0D03D700E51713F517E51613F516DAE12208
:2003E4007A10E4FBFCE58225E0F582E58333F583EB33FBEC33FCEB9516F5F0EC9517400611
:09040400FCABF0438201DADD22B9
:20003B007800E84400600A790175A000E4F309D8FC7800E84400600C7900900001E4F0A3C3
:04005B00D8FCD9FAFA
:0D000600758120120497E58260030200035B
:1C040D0020F71430F6148883A88220F507E6A88375830022E280F7E49322E022FE
:20042900C2D5E58330E70DD2D5E4C39582F582E49583F583E51730E70BE4C39516F516E4E1
:160449009517F51712039730D50BE4C39582F582E49583F583225E
:20045F00C2D5E58330E70DD2D5E4C39582F582E49583F583E51730E70DB2D5E4C39516F51C
:18047F0016E49517F5171203E430D50BE4C39582F582E49583F58322DF
:040497007582002248
:00000001FF
