:03000000020006F5
:03005F0002000399
:0300030002006296
:1B00620043B32043B40212007DD2959003E812008DC2959003E812008D80EE85
:20007D004389015389FD438E085389FB5389F722AE82AF83EE4F60121EBEFF011FC007C085
:20009D00061200A8D006D00780EA22758C00758A00D28CAF8C7E00AC8A7D00EC2EFEED3F3C
:0F00BD00FFC3EE9480EF648094BE40E7C28C22B4
:06003500E478FFF6D8FD9F
:200013007900E94400601B7A009000D0780175A000E493F2A308B8000205A0D9F4DAF275C3
:02003300A0FF2C
:20003B007800E84400600A790175A000E4F309D8FC7800E84400600C7900900001E4F0A3C3
:04005B00D8FCD9FAFA
:0D0006007581071200CCE582600302000343
:0400CC007582002217
:00000001FF
