:03000000020006F5
:0300620002000396
:0300030002047183
:100065001204CE7508007582D012050575826B12D3
:10007500053A75820012053A1204A190000A12058C
:10008500CE1204CE7508007582D012050575821A48
:1000950012053A75820512053A1204A190000A125A
:1000A50005CE1204CE7508007582D012050575823D
:1000B5001B12053A75820012053A1204A190000A36
:1000C5001205CE1204CE7508007582D0120505758D
:1000D500821C12053A75821012053A1204A190008D
:1000E5000A0205CE1204CE7508007582D0120505E8
:1000F50075823B12053A1204EF7508017582D1121B
:100105000505758201120587AF828F39753A00752D
:100115008201120587AF828F3B753C007582011203
:100125000587AF828F3D753E00758201120587AF49
:10013500828F3F754000758201120587AF828F411E
:10014500754200758200120587AF828F43754400A2
:100155001204A1AF397E00E53B4EF539E53C4FF57C
:100165003AAF3DE53F4EF53DE5404FF53EAF41E544
:10017500434EF541E5444FF542853982853A831270
:100185000CF1AC82AD83AEF0FFE4C0E0C0E074805A
:10019500C0E07445C0E08C828D838EF0EF12126D45
:1001A500AC82AD83AEF0FFE58124FCF581740AC015
:1001B500E074D7C0E07423C0E0743CC0E08C828D4D
:1001C500838EF0EF12074085822585832685F027EB
:1001D500F528E58124FCF581853D82853E83120C59
:1001E500F1AC82AD83AEF0FFE4C0E0C0E07480C046
:1001F500E07445C0E08C828D838EF0EF12126D8520
:10020500822985832A85F02BF52CE58124FCF5814F
:10021500854182854283120CF1AC82AD83AEF0FF3D
:10022500E4C0E0C0E07480C0E07445C0E08C828D1D
:10023500838EF0EF12126DAC82AD83AEF0FFE581D7
:1002450024FCF581740AC0E074D7C0E07423C0E0D3
:10025500743CC0E08C828D838EF0EF120B63858237
:100265002D85832E85F02FF530E58124FCF581C0A1
:1002750025C026C027C0288525828526838527F0A9
:10028500E52812074BAC82AD83AEF0FFE58124FC77
:10029500F581C007C006C005C004C02DC02EC02F03
:1002A500C030852D82852E83852FF0E53012074BD2
:1002B500A882A983AAF0FBE58124FCF581D004D0AE
:1002C50005D006D007C000C001C002C0038C828DD6
:1002D500838EF0EF120B63AC82AD83AEF0FFE58148
:1002E50024FCF5818C828D838EF0EF12084FAC8251
:1002F500AD83AEF0FFC004C005C006C007852982E6
:10030500852A83852BF0E52C12126DAC82AD83AE68
:10031500F0FFE58124FCF5818C828D838EF0EF1250
:100325000CFEAC82AD83AEF0FF74F4C0E074FEC089
:10033500E0748EC0E0743CC0E08C828D838EF0EF5B
:1003450012126D85823185833285F033F534E5816E
:1003550024FCF581C029C02AC02BC02C85298285A3
:100365002A83852BF0E52C12074BAC82AD83AEF0CA
:10037500FFE58124FCF581C007C006C005C004C0A7
:100385002DC02EC02FC030852D82852E83852FF060
:10039500E53012074BA882A983AAF0FBE58124FC6E
:1003A500F581D004D005D006D007C000C001C00239
:1003B500C0038C828D838EF0EF120B63AC82AD830C
:1003C500AEF0FFE58124FCF5818C828D838EF0EF04
:1003D50012084FAC82AD83AEF0FFC004C005C00665
:1003E500C0078525828526838527F0E52812126DAD
:1003F500AC82AD83AEF0FFE58124FCF5818C828D66
:10040500838EF0EF120CFEAC82AD83AEF0FF74F478
:10041500C0E074FEC0E0748EC0E0743CC0E08C8225
:100425008D838EF0EF12126D85823585833685F0CA
:1004350037F538E58124FCF5818531828532838560
:1004450033F0E534120BBC85823185833285F03378
:10045500F5348535828536838537F0E538120BBC52
:1004650085823585833685F037F5382253B1FE43CD
:10047500B201C2809003E81205CED2809003E81243
:1004850005CEC28080EE75BE2753B3F753B4F7533C
:10049500B3EF53B4EFD293D294D2C622C2C5D2C41D
:1004A500C2C37F007D017E0074F8B5BD02800FEDEB
:1004B5004E70047F0180070DBD00ED0E80EAEFB49C
:1004C50001009200E433F5822274F8B5BD02800480
:1004D50075820022C2C4D2C5C2C330C3FD7408B53B
:1004E500BD01221204A175820022C2C4D2C5C2C3B5
:1004F50030C3FD7410B5BD01221204A1758200221E
:10050500AF82C2C5C2C48FBCC2C330C3FDE508609B
:10051500127440B5BD0280071204A17582002275D0
:100525008201227418B5BD0280071204A1758200EC
:1005350022758201228582BCC2C330C3FD7428B5F1
:10054500BD01221204A175820022AD82AE83AFF0F7
:100555007C00C3EC95095029EC2DF9E43EFA8F0394
:1005650089828A838BF0121330F5BCC2C330C3FD78
:100575007428B5BD0280071204A1758200220C8083
:10058500D122E582FF6019D2C2C2C330C3FD7450C7
:10059500B5BD0280071204A17582002285BC8222A6
:1005A500C2C2C2C330C3FD7458B5BD028007120470
:1005B500A17582002285BC82224389015389FD43AE
:1005C5008E085389FB5389F722AE82AF83EE4F60C5
:1005D500121EBEFF011FC007C0061205E9D006D0D6
:1005E5000780EA22758C00758A00D28CAF8C7E005C
:1005F500AC8A7D00EC2EFEED3FFFC3EE9480EF64E8
:080605008094BE40E7C28C2284
:03005F00750A001F
:10060D0043C42053C4F8539CFD75C6FF75C5E6431E
:10061D00C40853877FD28653B1BF43B240D28753AC
:10062D00B17F53B27F5387BFC29FD29ED29C750AB2
:10063D007B228582992285998222D2AC22C2AC225C
:10064D00E582F4529822E582559860047582012264
:10065D0075820022AD82AE83AFF08D828E838FF0D6
:10066D00121330FC60318C99758202C007C006C030
:10067D0005120653E582D005D006D00760EA7582D3
:10068D0002C007C006C00512064DD005D006D00722
:10069D000DBD00C60E80C32275990A758202120621
:1006AD0053E58260F675820202064DAE82AF837D00
:1006BD00008D0B8D0C8D0D8D0E8D0FEE4F7004F585
:1006CD000B7D01EE4F603DED240BF975130A75148A
:1006DD00008E828F83C007C006C005C00112134C67
:1006ED00AB82D001D005D006D007A7030D75130A34
:1006FD007514008E828F83C0051213AFAE82AF8347
:10070D00D00580BF8D07EF60298F06EE14240BF9FD
:10071D00870674302EF599758202C007120653E5CF
:10072D0082D00760F2758202C00712064DD0071FF6
:10073D0080D422A8811818C6B2E7C6020B6312072F
:10074D00EEBC0003021225EF60FA30D502B2D1E5FE
:10075D0083B4FF0302123BE582B4FF0302123B2573
:10076D008340072482400B02122524831450030278
:10077D00123BF582EA8DF0A4A8F0EA8EF0A428F8D9
:10078D00E435F0F9EB8DF0A428E935F0F9E433CA3E
:10079D008FF0A429F9EA35F0FAEBF88EF0A429F9D7
:1007AD00EA35F0FAE433FBEC8DF0A429F9EA35F0E3
:1007BD00FAE43BFBE88FF0A42AFAEB35F0FBE433C7
:1007CD00CCFD8EF0A42AFAEB35F0FBE43CFCED8F6A
:1007DD00F0A42BFBEC35F0FC20E70312081C0212F1
:1007ED0004AA82AB83A2F73392D1F5826002D2F7CD
:1007FD00ACF0E58124F9F8E6FD08E6FE0886F00880
:0F080D00E6A2F73392D5F5836002D2F7AFF0225F
:06003500E478FFF6D8FD9F
:10081C007804EC7011E58224F8500AF582E4C9CA18
:10082C00CBFCD8EF22EC7820058220E713D582018F
:10083C0022C3E933F9EA33FAEB33FBEC33FCD8EAA5
:03084C00158222F0
:100013007900E94400601B7A0090146A780075A0A7
:1000230000E493F2A308B8000205A0D9F4DAF2754C
:02003300A0FF2C
:10084F00C010858110AC82AD83AEF0FFE581240A24
:10085F00F5818CF0ED42F0EE42F0EF547F45F070F1
:10086F000A8C828D838EF0EF020AB7C007C006C0D4
:10087F0005C004E4C0E0C0E07480C0E0743FC0E095
:10088F008C828D838EF0EF12142AAB82E58124FCCB
:10089F00F581D004D005D006D007EB600B90000097
:1008AF0075F080743F020AB7C007C006C005C004C8
:1008BF00E4C0E0C0E0C0E0C0E08C828D838EF0EF3A
:1008CF00120ABDAB82E58124FCF581D004D005D09E
:1008DF0006D007EB600F751121751200900000E430
:1008EF00F5F0020AB7E5102409FB8B137514007598
:1008FF0015408C828D838EF0EF121182AC82AD8306
:10090F00AEF0FFE5102405F8A60408A60508A60614
:10091F0008A607E5102405F8E6C0E008E6C0E008E1
:10092F00E6C0E008E6C0E09014BA75F017743F1205
:10093F00074BAA82AB83AEF0FFE58124FCF58174EF
:10094F00A8C0E004C0E074D5C0E0743EC0E08A8265
:10095F008B838EF0EF120B63A81008A68208A68374
:10096F0008A6F008F6E58124FCF581A81008E6C07A
:10097F00E008E6C0E008E6C0E008E6C0E0E51024C5
:10098F0005F886820886830886F008E612126DAA9B
:10099F0082AB83AEF0FFE58124FCF581C002C0037A
:1009AF00C006C007A8100886820886830886F0084C
:1009BF00E6120B63AC82AD83AEF0FFE58124FCF54C
:1009CF00817513FE7514FF8C828D838EF0EFC00737
:1009DF00C006C005C004120C17A81008A68208A6EE
:1009EF008308A6F008F6D004D005D006D007C004BF
:1009FF00C005C006C007E5102405F8868208868367
:100A0F000886F008E612126DAC82AD83AEF0FFE5FA
:100A1F008124FCF581C004C005C006C007A81008DA
:100A2F0086820886830886F008E6120B63AC82ADD7
:100A3F0083AEF0FFE58124FCF581E5102409F8E68B
:100A4F0030E02BC004C005C006C0079004F375F05A
:100A5F0035743F12074BAC82AD83AEF0FFE58124B6
:100A6F00FCF581E5102409F806B600020806751397
:100A7F0002751400E5102409F88682088683C007E2
:100A8F00C006C005C0041213AF858213858314D02E
:100A9F0004D005D006D0078C828D838EF0EF120C18
:100AAF0017AC82AD83AEF0FF851081D01022FFA866
:100ABF00811818120CC6D2D133E6400730E70B75F8
:100ACF0082002220E70675820122C2D1120CA8E90A
:100ADF007003F5822220D101B3E433F58222E513AE
:100AEF00451460467A01E51325E0F513E51433400C
:100AFF0012F514E5829513E583951440030A80E6F9
:100B0F00C3E51413F514E51313F513C3E582951319
:100B1F00F5F0E58395144005F58385F082C3E51460
:100B2F0013F514E51313F513DAE1227A10E4FBFC45
:100B3F00E58225E0F582E58333F583EB33FBEC3378
:100B4F00FCEB9513F5F0EC95144006FCABF04382EB
:040B5F0001DADD22B8
:10003B007800E84400600A790075A000E4F309D861
:10004B00FC7800E84400600C7900900000E4F0A319
:04005B00D8FCD9FAFA
:100B63001207EE7900E583B58202800D500312125D
:100B730053E583C395821213E7E5D0C465D020E122
:100B830017EA2DFAEB3EFBEC3FFC500974011213FC
:100B9300E7EC4480FC021204C3EA9DFAEB9EFBECF3
:100BA3009FFC500FC3E499F9E49AFAE49BFBE49C9D
:100BB300FCB2D112081C021204C010858110AC8251
:100BC300AD83AEF0FFE5812404F581E51004F8A6BA
:100BD3000408A60508A60608A607A910098704099C
:100BE300870509870609870719191953077FA7047A
:100BF30009A70509A70609A707A9100987040987F3
:100C0300050987060987078C828D838EF0EF85108F
:100C130081D01022AC82AD83AEF0FF8C158D168E81
:100C2300178F18AC17E518A2E7CC33CC33CC54019B
:100C330030E00244FE3395E08C19751A00751B00F1
:100C4300751C00AA13E514FB3395E0FEFFEA251992
:100C5300FAEB351AEE351BEF351C7B008A1BEB5480
:100C630001A2E0C51B13C51B13C51BF51C75190099
:100C7300751A00AC15AD16747F5517FE74805518A0
:100C8300FFE5194204E51A4205E51B4206E51C424D
:100C9300078C158D168E178F1885158285168385FB
:100CA30017F0E518227901AA82E68F82B58213181C
:100CB300E6B5F00E18E6B5830918E68A82B5820216
:100CC300790022B4800FE5F0700AE5837006E582AF
:100CD30070027F00EFB6801518B6001018B6000B2F
:100CE30018B6000608080876002208080822AC8314
:100CF300AB827A007900748E02138BC01085811049
:100D0300C082C083C0F0C0E0E581240EF581E51008
:100D13002411F8E4F608F6A81008868208868308EA
:100D230086F008E6120BBCAC82AD83AEF0FFE51093
:100D3300240DF8A60408A60508A60608A607E510CC
:100D4300240DF8E6C0E008E6C0E008E6C0E008E6E7
:100D5300C0E090000075F080743F120ABDAB82E5DD
:100D63008124FCF581EB6046E510240DF8E6C0E034
:100D730008E6C0E008E6C0E008E6C0E090000075C1
:100D8300F080743F12126DAC82AD83AEF0FFE5814B
:100D930024FCF581E510240DF8A60408A60508A691
:100DA3000608A607E5102411F87602087600E51078
:100DB300240DF8E6C0E008E6C0E008E6C0E008E677
:100DC300C0E09030A375F089743E120ABDAB82E592
:100DD3008124FCF581EB7003020ED3E510240DF89A
:100DE300E6C0E008E6C0E008E6C0E008E6C0E09040
:100DF30067AF75F03B743F12074BAA82AB83AEF02B
:100E0300FFE58124FCF581E4C0E0C0E07480C0E02C
:100E1300743FC0E08A828B838EF0EF120740AC826E
:100E2300AD83AEF0FFE58124FCF581E510240DF8D8
:100E3300E6C0E008E6C0E008E6C0E008E6C0E08CF3
:100E4300828D838EF0EF120B63C8E5102405C8A6CC
:100E53008208A68308A6F008F6E58124FCF58174D0
:100E6300D7C0E074B3C0E074DDC0E0743FC0E0E518
:100E730010240DF886820886830886F008E6120B94
:100E830063AA82AB83AEF0FFE58124FCF581C00247
:100E9300C003C006C007E5102405F88682088683D0
:100EA3000886F008E612126DAC82AD83AEF0FFE562
:100EB3008124FCF581E510240DF8A60408A6050895
:100EC300A60608A607E5102411F806B600020806D0
:100ED300E510240DF886820886830886F008E6125A
:100EE3000BBCAC82AD83AEF0FFE4C0E0C0E0748025
:100EF300C0E07439C0E08C828D838EF0EF120ABD9E
:100F0300AF82E58124FCF581EF601BE510240DF829
:100F1300E5102409F9E6F708E609F708E609F708F2
:100F2300E609F70210C7E510240DF8E6C0E008E66D
:100F3300C0E008E6C0E008E6C0E0E510240DF8864E
:100F4300820886830886F008E612074BAF82AE83D9
:100F5300ADF0FCE58124FCF581C007C006C005C0E7
:100F630004C007C006C005C00490869175F0507494
:100F7300BD12074BC8E5102405C8A68208A683083E
:100F8300A6F008F6E58124FCF58174F6C0E0741040
:100F9300C0E074F1C0E074BEC0E0E5102405F8863B
:100FA300820886830886F008E6120B63C8E51024DE
:100FB30005C8A68208A68308A6F008F6E58124FCE6
:100FC300F581D004D005D006D007C007C006C00500
:100FD300C004C007C006C005C004E5102405F88698
:100FE300820886830886F008E612074BC8E51024BA
:100FF30005C8A68208A68308A6F008F6E58124FCA6
:10100300F581E510240DF8E6C0E008E6C0E008E647
:10101300C0E008E6C0E0E5102405F8868208868370
:101023000886F008E612074BC8E5102405C8A68217
:1010330008A68308A6F008F6E58124FCF581D00410
:10104300D005D006D00774D3C0E074CCC0E074B42C
:10105300C0E0743FC0E08F828E838DF0EC120B638F
:10106300AF82AE83ADF0FCE58124FCF581C007C0FF
:1010730006C005C004E5102405F8868208868308A7
:1010830086F008E612126DAF82AE83ADF0FCE58107
:1010930024FCF581C007C006C005C004E510240D7B
:1010A300F886820886830886F008E6120B63C8E593
:1010B300102409C8A68208A68308A6F008F6E581CD
:1010C30024FCF581E5102411F8C37401967480089B
:1010D30086F063F08095F0500FE5102409F8E608D8
:1010E300E608E608E6B2E7F6E5102411F8E626FA84
:1010F30008E633FBEA2AFAEB33FBEA245AF582EBE0
:101103003414F583E493FAA3E493FBA3E493FEA3DB
:10111300E493FFC002C003C006C007E5102409F82A
:1011230086820886830886F008E6120B63AC82ADDC
:1011330083AEF0FFE58124FCF581C007C006C0053E
:10114300C004E4C0E0C0E0C0E0C0E0A810088682AC
:101153000886830886F008E6120ABDAB82E581247F
:10116300FCF581D004D005D006D007EB6004EFB2C4
:0F117300E7FF8C828D838EF0EF851081D01022E4
:10145A0000000000920A063FDB0FC93F920A863F4E
:10118200AC82AD83AEF0FF8C168D178E188F19AC22
:1011920018E519A2E7CC33CC33CC540130E0024439
:1011A200FE3395E0E4FDFEFFEC2482F51AED34FFF8
:1011B200F51BEE34FFF51CEF34FFF51DAA13AB143B
:1011C200AF15AC1AAD1B8A828B838FF0EC12143BE5
:1011D200A3ED12143BAC16AD17747F5518FE748044
:1011E2005519FF8C168D178E188F1943073F8C16D1
:1011F2008D178E188F198516828517838518F0E54D
:101202001922B98003EA13B34010EA2401FAE43B3D
:10121200FBE43CFC50047C800582BC000EBB000B4E
:10122200BA0008E4F5F0F583F58222A2D1E5821333
:101232008CF092F78B838A8222E4F583F58275F033
:1012420080F4A2D11322E4F583F58275F0C0747F95
:1012520022E582C583F582A2D133A2D592D113921F
:10126200D5ECCFFCEBCEFBEACDFA221207EE30D55D
:1012720002B2D1BF0009BC000302124802123BBCF9
:101282000003021225E583B4FF0BE582B4FF0302DB
:101292001248021225E582B4FF0302123BC3958372
:1012A2005007247F400B021225248014500302129F
:1012B2003BF582C3ED9AEE9BEF9C40111582C3EA87
:1012C20033F9EB33FAEC33FBE433FC8005E4CCCBAB
:1012D200CAF9C08275F019C3E99DEA9EEB9FEC94AE
:1012E20000D5F002802D400EE99DF9EA9EFAEB9FAF
:1012F200FBEC9400FCC3B3E833F8E58233F582E5F6
:101302008333F583C3E933F9EA33FAEB33FBEC3386
:10131200FC80C4B3E4F938FAE43582FBE43583FC9B
:0E132200D082500405827C8012081C02121C2E
:0D000600758147121456E582600302000365
:1013300020F71430F6148883A88220F507E6A883E6
:1013400075830022E280F7E49322E022C2D5E58390
:1013500030E70DD2D5E4C39582F582E49583F58319
:10136000E51430E70BE4C39513F513E49514F51475
:10137000120AED30D50BE4C39582F582E49583F52E
:101380008322FCABF0AA83A982749EF582C2D1ECC1
:1013900030E716D2D1E9F42401F9EAF43400FAEB8B
:1013A000F43400FBECF43400FC12081C021204C2FA
:1013B000D5E58330E70DD2D5E4C39582F582E49577
:1013C00083F583E51430E70DB2D5E4C39513F51327
:1013D000E49514F514120B3A30D50BE4C39582F55D
:1013E00082E49583F583226040F82582500274FFE1
:1013F000F582E824F8501ECCCBCAF9E4CC24F8508E
:1014000014CBCAF9E4CB24F8500BCAF9E4CA24F887
:10141000500379002224086010F8C3EC13FCEB138E
:10142000FBEA13FAE913F9D8F122FFA88118181280
:101430000CC6120CA8E96401F5822220F71130F6DF
:10144000138883A88220F509F6A88375830022807B
:0A145000FEF280F5F0227582002202
:00000001FF
