:03000000020006F5
:09005F00750894750926020003DE
:0300030002006890
:2000680053B3DF43B420D28653B1BF43B240D28753B17F53B27F750FCC7510FF75820112EE
:2000880001031200ABD295750FE87510039000011200B5C295750FE87510039000011200F6
:0300A800B580E23E
:2000AB00438E085389F043890122AE82AF83E50FC454F0FD74FFC39DFDAB0FE510C454F0BF
:2000CB00CBC4CB6BCB54F0CB6BFC8B018C02E4FBFC74FFC39974FF9AFAE49BE49C8A04EEC9
:1800EB004F60148D8A8C8CD28C108D0280FBC28C1EBEFF011F80E822C0
:20010300AF82BF0002800ABF01028017BF02398028759850438920438780438E1053C4DFFB
:20012300D28E2275985053877F53C4F843C4208510C6850FC543C4082275F85075C480856E
:2001430010C6850FC543C40822AF82BF00028005BF01098004850F9922850F9A22AF827E2A
:2001630000BF00028005BF011280093098FDAE99C298800730F8FDAE9AC2F88E8222D2AC17
:2001830022C2AC22E582F4529822E582559860047582012275820022AD82AE83AFF08D824A
:2001A3008E838FF01202F9FC60438C0F758200C007C006C00512014CD005D006D007758244
:2001C30002C007C006C00512018DE582D005D006D00760EA758202C007C006C00512018710
:2001E300D005D006D0070DBD00B40E80B122AE82AF837D008D0A8D0B8D0C8D0D8D0EEE4F82
:200203007004F50A7D01EE4F603DED240AF9750F0A7510008E828F83C007C006C005C001B4
:20022300120315AB82D001D005D006D007A7030D750F0A7510008E828F83C00512034BAE52
:2002430082AF83D00580BF8D07EF60338F06EE14240AF9870674302EF50F758200C00712CC
:20026300014CD007758202C00712018DE582D00760F2758202C007120187D0071F80CA22AB
:06003500E478FFF6D8FD9F
:200013007900E94400601B7A00900387780075A000E493F2A308B8000205A0D9F4DAF2750A
:02003300A0FF2C
:20028300E50F451060467A01E50F25E0F50FE510334012F510E582950FE583951040030A10
:2002A30080E6C3E51013F510E50F13F50FC3E582950FF5F0E58395104005F58385F082C3C3
:0D02C300E51013F510E50F13F50FDAE12239
:2002D0007A10E4FBFCE58225E0F582E58333F583EB33FBEC33FCEB950FF5F0EC9510400634
:0902F000FCABF0438201DADD22CF
:20003B007800E84400600A790075A000E4F309D8FC7800E84400600C7900900000E4F0A3C5
:04005B00D8FCD9FAFA
:0D000600758110120383E582600302000380
:1C02F90020F71430F6148883A88220F507E6A88375830022E280F7E49322E02214
:20031500C2D5E58330E70DD2D5E4C39582F582E49583F583E51030E70BE4C3950FF50FE40B
:160335009510F51012028330D50BE4C39582F582E49583F5832296
:20034B00C2D5E58330E70DD2D5E4C39582F582E49583F583E51030E70DB2D5E4C3950FF53F
:18036B000FE49510F5101202D030D50BE4C39582F582E49583F583221E
:04038300758200225D
:00000001FF
