:03000000020006F5
:03005F0002000399
:0300030002006296
:2000620053B3DF43B420120089D2957508E87509039001F4120099C2957508E8750903909D
:0700820001F412009980E275
:20008900438E085389F75389FB5389FD43890122AE82AF83E508C454F0FD74FFC39DFDAB3D
:2000A90008E509C454F0CBC4CB6BCB54F0CB6BFC8B018C02E4FBFC74FFC39974FF9AFAE484
:1E00C9009BE49C8A04EE4F60148D8A8C8CD28C108D0280FBC28C1EBEFF011F80E82245
:06003500E478FFF6D8FD9F
:200013007900E94400601B7A009000EB780075A000E493F2A308B8000205A0D9F4DAF275A9
:02003300A0FF2C
:20003B007800E84400600A790075A000E4F309D8FC7800E84400600C7900900000E4F0A3C5
:04005B00D8FCD9FAFA
:0D0006007581091200E7E582600302000326
:0400E70075820022FC
:00000001FF
