:04000000020029329F
:01000B0032C2
:0100130032BA
:01001B0032B2
:030023000200A632
:0300820002002653
:0300260002008550
:200085001200F6758239120125758202120139E58260F67582021201339003E81200B780E6
:0200A500E23245
:2000A7004389015389FD438E085389FB5389F722AE82AF83EE4F60121EBEFF011FC007C05B
:2000C700061200D2D006D00780EA22758C00758A00D28CAF8C7E00AC8A7D00EC2EFEED3FE8
:0F00E700FFC3EE9480EF648094BE40E7C28C228A
:2000F60043C42053C4F8539CFD75C6FF75C5E643C40853877FD28653B1BF43B240D287530A
:20011600B17F53B27F5387BFC29FD29ED29C228582992285998222D2AC22C2AC22E582F40C
:11013600529822E582559860047582012275820022C1
:06005800E478FFF6D8FD7C
:200036007900E94400601B7A0090014B780175A000E493F2A308B8000205A0D9F4DAF27524
:02005600A0FF09
:20005E007800E84400600A790175A000E4F309D8FC7800E84400600C7900900001E4F0A3A0
:04007E00D8FCD9FAD7
:0D002900758107120147E582600302002681
:04014700758200229B
:00000001FF
