:03000000020006F5
:20005F00750800750900750A00750B00750C00750D00750E00750F007510007511007512EB
:1F007F0000751300751400751500E4F516F517F518F519F528F529F52AF52BF52CF52DF4
:0300A40002000354
:03000300020218DE
:2000A7001204A9AE828E1F7582CC1205377582441205371204A2E5828583F045F060F41251
:2000C70004A9AE828E207582CC1205377582BE12053712055685821A12055685821B120546
:2000E7005685821C12055685821D12055685821E1204A9AF1B7E00AC1A7D00EC4EF582ED75
:200107004FF583120826AC82AD83AEF0FFE4C0E0C0E07480C0E07441C0E08C828D838EF02D
:20012700EF12083385822185832285F023F524E58124FCF58122AF8275F00AEF84C454F040
:20014700FE75F00AEF84E5F02EF58222E582FFC4540FFE53060F53070FEE75F00AA42FF59B
:20016700822212013DE582F530852E8212013DE582F531852F8212013DE582F532753E30EF
:20018700753F00754040753C00753D037582D002070012013DE582F53485338212013DE52A
:2001A70082F535753E34753F00754040753C04753D027582D0020700754328754400754570
:2001C700407541007542067582D012076CE4F516F517E5162428F98707BF5A00501DEFC417
:2001E700540FFE53060F740F5FF7E5162428F8EE75F00AA4FEE6FF2EF6800277000516E417
:20020700B516020517C3E5169406E517940040C22212057B1202B21204A97546E875470369
:200227009000641202BC7539077582011203FA7546E87547039003E81202BC1201BF75F053
:200247000AE5298475F00A84E5F0F50875F00AE52984E5F0F50A75F00AE5288475F00A846E
:20026700E5F0F50C75F00AE52884E5F0F50EE4F516F517E516F5822408F9873A753B0112B3
:2002870004180516E4B516020517C3E516940EE517940040DE7546E87547039000FA120245
:0B02A700BC0518E4B518940519809000
:2002B200438E085389F043890122AE82AF83E546C454F0FD74FFC39DFDAB46E547C454F011
:2002D200CBC4CB6BCB54F0CB6BFC8B018C02E4FBFC74FFC399F974FF9AFAE49BFBE49C8ABE
:1A02F20004EE4F60148D8A8C8CD28C108D0280FBC28C1EBEFF011F80E822C3
:06009E0075360F7537FFF7
:20030C00AC82AD83AEF0FFEC4D4E4F6010001CBCFF091DBDFF051EBEFF011F80EA22D280F9
:20032C00C291900064E4F5F012030CD290900064E4F5F012030CD291900064E4F5F002031B
:20034C000CD290900064E4F5F012030CD291900064E4F5F012030CC280C291900064E4F5A2
:20036C00F012030CC290900064E4F5F002030CAF827E00EF30E004D2918002C29190006462
:20038C00E4F5F0C007C00612030CD290900064E4F5F012030CD006D007C290EFC313FF0EC9
:2003AC00BE080040CE22AF82C00712034DD0078F8212037B12032A900064E4F5F002030C5C
:2003CC00AF82758203C0071203B2D007EF60047F0880027F00E53824F850047E078002AE64
:2003EC0038EE4FF53674804536F5820203B253B3FD43B40253B3FE43B40153B1FE43B201C4
:20040C00D290D291D2808539380203CCAF8274F6253A4009E53A9009F393FE80027E0074FF
:20042C0001B53B0474018001E4FDE4BF02010452057402B53B0474018001E4FCEFB40100FF
:20044C00E433FB5C4D6003430680758244C007C0061203B212034DD006D00774C04FF58211
:20046C00C00612037BD0068E8212037B12032A900064E4F5F002030C7F00753A00753B00B9
:10048C008F82C007120418D0070FBF040040EB2264
:0A09F3003F065B4F666D7D077F6FC6
:20049C00D29522C29522A295E433F5822243B32043B42012049F7546017547009001E0127A
:2004BC0002BC12049C75460175470090003C1202BC1204A2AF827E007546018E479001E033
:2004DC00C007C0061202BCD006D0078F828E8322E582FF601312049F0012049C7546017541
:2004FC00470090003C0202BC12049F75460175470090003C1202BC12049C002212049F00BB
:20051C0012049C1204A2AF8275460175470090003CC0071202BCD0078F8222AF827E00741C
:20053C00015FF582C007C0061204ECD006D007EFC313FF0EBE080040E6227F007E08EFC3F5
:1F055C0013FFC007C006120518E582D006D00730E0034307808E051DEDFE70E28F8222A1
:20057B0043B31043B41043B30843B408D294D29322D2937546017547009000051202BCD255
:20059B00947546017547009000051202BCC2947546017547009000051202BCC2937546018B
:2005BB007547009000050202BCC2947546017547009000051202BCD293754601754700906F
:2005DB0000051202BCD2947546017547009000050202BCAF827E00EF30E704D2948002C295
:2005FB0094754601754700900005C007C0061202BCD2937546017547009000051202BCD0D0
:20061B0006D007C293EF2FFF0EBE080040C9C2947546017547009000051202BCD293754640
:20063B00017547009000051202BCC2937546017547009000051202BCD2943094047F00801E
:20065B00027F01754601754700900005C0071202BCD0078F8222AF827E00D2947D00EE2EA1
:20067B00FED293754601754700900005C007C006C0051202BCD005D006D00730940343063B
:20069B0001754601754700900005C007C006C0051202BCC293754601754700900005120299
:2006BB00BCD005D006D0070DBD080040B1EF6004C2948002D294754601754700900005C0C0
:2006DB00061202BCD2937546017547009000051202BCC2937546017547009000051202BCB5
:2006FB00D0068E8222AF82AE3C7D00C3ED953D505CC007C006C00512058CD005D006D0079A
:20071B008F82C007C006C0051205EED005D0068E820EC006C0051205EED005ED253EFAE4FA
:20073B00353FFBAC408A828B838CF01208F6F582C0051205EE1205C47546E875470390008F
:20075B00011202BCD005D006D0070D809E75820122AF82C00712058CD0078F82C007120585
:20077B00EE8541821205EE12058CD00774014FF5821205EE7F00AD427E001DBDFF011E8FF6
:20079B00037C00C3EB9DEC64808EF063F08095F0502FEF2543FCE43544FDAE45758201C0F7
:2007BB0007C006C005C004120671AB82D004D005D006D0078C828D838EF0EB12080B0F8081
:2007DB00B5EF2543FFE43544FEAD45758200C007C006C005120671AC82D005D006D0078F95
:1007FB00828E838DF0EC12080B1205C475820122D8
:06003500E478FFF6D8FD9F
:200013007900E94400601B7A009009FD780075A000E493F2A308B8000205A0D9F4DAF2758E
:02003300A0FF2C
:1B080B0020F71130F6138883A88220F509F6A8837583002280FEF280F5F022EC
:20003B007800E84400600A790075A000E4F309D8FC7800E84400600C7900900000E4F0A3C5
:04005B00D8FCD9FAFA
:0D082600AC83AB827A007900748E02091B4E
:2008330012093F30D502B2D1BF0009BC00030209E80209DBBC00030209C5E583B4FF0BE5C7
:2008530082B4FF030209E80209C5E582B4FF030209DBC395835007247F400B0209C52480F3
:200873001450030209DBF582C3ED9AEE9BEF9C40111582C3EA33F9EB33FAEC33FBE433FC3D
:200893008005E4CCCBCAF9C08275F019C3E99DEA9EEB9FEC9400D5F002802D400EE99DF9A6
:2008B300EA9EFAEB9FFBEC9400FCC3B3E833F8E58233F582E58333F583C3E933F9EA33FA06
:2008D300EB33FBEC33FC80C4B3E4F938FAE43582FBE43583FCD082500405827C8012096DEC
:0308F3000209BC3B
:0D0006007581471209A0E582600302000326
:1C08F60020F71430F6148883A88220F507E6A88375830022E280F7E49322E02211
:20091200FCABF0AA83A982749EF582C2D1EC30E716D2D1E9F42401F9EAF43400FAEBF434E4
:0D09320000FBECF43400FC12096D0209A476
:20093F00AA82AB83A2F73392D1F5826002D2F7ACF0E58124F9F8E6FD08E6FE0886F008E61B
:0E095F00A2F73392D5F5836002D2F7AFF022F3
:20096D007804EC7011E58224F8500AF582E4C9CACBFCD8EF22EC7820058220E713D5820189
:13098D0022C3E933F9EA33FAEB33FBEC33FCD8EA15822297
:0409A000758200223A
:2009A400B98003EA13B34010EA2401FAE43BFBE43CFC50047C800582BC000EBB000BBA0097
:2009C40008E4F5F0F583F58222A2D1E582138CF092F78B838A8222E4F583F58275F080F457
:0F09E400A2D11322E4F583F58275F0C0747F224F
:00000001FF
