:03000000020006F5
:1B005F0075087E750981750A91750BA9750C91750D81750E81750F7E02000333
:0300030002007A7E
:1F007A0053B3DF43B42053B3FB53B4FB1200991200F1C2952092FD75827E12013180F586
:20009900438E085389F043890122AE82AF83E516C454F0FD74FFC39DFDAB16E517C454F0BC
:2000B900CBC4CB6BCB54F0CB6BFC8B018C02E4FBFC74FFC39974FF9AFAE49BE49C8A04EEDB
:1800D9004F60148D8A8C8CD28C108D0280FBC28C1EBEFF011F80E822D2
:2000F10043F31043F40853F37F53F3DF53F3F753F3FB43F30375C7AA75C75575910175F3E3
:200111000075C7AA75C75575910043B10253B2FD53B1FE43B20153B1FE43B20143F34022D1
:1B0131008582F5E5F430E7FB53F47F228582F5E5F430E7FB85F58253F47F2219
:20014C00AF82BF0002800ABF01028017BF02398028759850438920438780438E1053C4DFB2
:20016C00D28E2275985053877F53C4F843C4208517C68516C543C4082275F85075C4808517
:20018C0017C68516C543C40822AF82BF00028005BF010980048516992285169A22AF827EC5
:2001AC0000BF00028005BF011280093098FDAE99C298800730F8FDAE9AC2F88E8222D2ACCE
:2001CC0022C2AC22E582F4529822E582559860047582012275820022AD82AE83AFF08D8201
:2001EC008E838FF0120342FC60438C16758200C007C006C005120195D005D006D007758261
:20020C0002C007C006C0051201D6E582D005D006D00760EA758202C007C006C0051201D034
:20022C00D005D006D0070DBD00B40E80B122AE82AF837D008D118D128D138D148D15EE4F15
:20024C007004F5117D01EE4F603DED2411F975160A7517008E828F83C007C006C005C0014F
:20026C0012035EAB82D001D005D006D007A7030D75160A7517008E828F83C005120394AE69
:20028C0082AF83D00580BF8D07EF60338F06EE142411F9870674302EF516758200C0071275
:2002AC000195D007758202C0071201D6E582D00760F2758202C0071201D0D0071F80CA2287
:06003500E478FFF6D8FD9F
:200013007900E94400601B7A009003D0780075A000E493F2A308B8000205A0D9F4DAF275C1
:02003300A0FF2C
:2002CC00E516451760467A01E51625E0F516E517334012F517E5829516E583951740030A8F
:2002EC0080E6C3E51713F517E51613F516C3E5829516F5F0E58395174005F58385F082C350
:0D030C00E51713F517E51613F516DAE122D3
:200319007A10E4FBFCE58225E0F582E58333F583EB33FBEC33FCEB9516F5F0EC95174006DC
:09033900FCABF0438201DADD2285
:20003B007800E84400600A790075A000E4F309D8FC7800E84400600C7900900000E4F0A3C5
:04005B00D8FCD9FAFA
:0D0006007581171203CCE582600302000330
:1C03420020F71430F6148883A88220F507E6A88375830022E280F7E49322E022CA
:20035E00C2D5E58330E70DD2D5E4C39582F582E49583F583E51730E70BE4C39516F516E4AD
:16037E009517F5171202CC30D50BE4C39582F582E49583F58322F6
:20039400C2D5E58330E70DD2D5E4C39582F582E49583F583E51730E70DB2D5E4C39516F5E8
:1803B40016E49517F51712031930D50BE4C39582F582E49583F5832276
:0403CC007582002214
:00000001FF
