:03000000020006F5
:0F005F00750800750900750A19750B86020003F4
:0300030002006E8A
:10006E001200AF7582A01202CAE582700280FE7580
:10007E00120C7513007514407515027582A11201CC
:10008E0095E582700280FE750E08750F00751040A2
:10009E007511047582A01200C5E582700280FE8083
:1000AE00FE75BE2753B3F753B4F753B3EF53B4EF04
:1000BE00D293D294D2C622AF8274F8B5BD02800418
:1000CE0075820022C2C4D2C5C2C37E007C017D00EF
:1000DE0020C30FEC4D70047E0180070CBC00F10DA7
:1000EE0080EEEE6007120381758200227408B5BDA2
:1000FE0002800712038175820022C2C5C2C48FBC62
:10010E00C2C37F007D017E0020C30FED4E70047FC1
:10011E000180070DBD00F10E80EEEF600712038126
:10012E00758200227418B5BD028007120381758294
:10013E0000227F00C3EF9511504AEF250EFCE435E7
:10014E000FFDAE108C828D838EF01203C9F5BCC2EA
:10015E00C37E007C017D0020C30FEC4D70047E0138
:10016E0080070CBC00F10D80EEEE60071203817566
:10017E008200227428B5BD028007120381758200A9
:10018E00220F80B0020381AF8274F8B5BD028004E5
:10019E0075820022C2C4D2C5C2C37E007C017D001E
:1001AE0020C30FEC4D70047E0180070CBC00F10DD6
:1001BE0080EEEE6007120381758200227408B5BDD1
:1001CE0002800712038175820022C2C5C2C48FBC91
:1001DE00C2C37F007D017E0020C30FED4E70047FF1
:1001EE000180070DBD00F10E80EEEF600712038156
:1001FE00758200227440B5BD02800712038175829C
:10020E0000227F007E00AC157D001CBCFF011D8E00
:10021E00027B00C3EA9CEB64808DF063F08095F066
:10022E00504ED2C2C2C37D007B017C0020C30FEBB7
:10023E004C70047D0180070BBB00F10C80EEED606D
:10024E0007120381758200227450B5BD0280071219
:10025E00038175820022EE2512FBE43513FCAD14EA
:10026E008B828C838DF0E5BC1203AE0E8E078096CA
:10027E00C2C2C2C37E007C017D0020C30FEC4D7054
:10028E00047E0180070CBC00F10D80EEEE600712BB
:10029E000381758200227458B5BD02800712038156
:1002AE0075820022EF2512FFE43513FEAD148F8206
:1002BE008E838DF0E5BC1203AE020381AF8243073D
:1002CE000174F8B5BD02800475820022C2C4D2C585
:1002DE00C2C37E007C017D0020C30FEC4D70047EF6
:1002EE000180070CBC00F10D80EEEE600712038159
:1002FE00758200227408B5BD0280071203817582D3
:10030E000022C2C5C2C48FBCC2C37F007D017E0065
:10031E0020C30FED4E70047F0180070DBD00F10E5E
:10032E0080EEEF6007120381758200227440B5BD26
:10033E0002800712038175820022C2C2C2C37F00EF
:10034E007D017E0020C30FED4E70047F0180070DEE
:10035E00BD00F10E80EEEF60071203817582002260
:10036E007458B5BD02800712038175820022E5BC68
:10037E00020381C2C5D2C4C2C37F007D017E007458
:10038E00F8B5BD02800FED4E70047F0180070DBDE4
:10039E0000ED0E80EAEFB401009200E433F5822204
:06003500E478FFF6D8FD9F
:100013007900E94400601B7A009003E9780175A038
:1000230000E493F2A308B8000205A0D9F4DAF2754C
:02003300A0FF2C
:1003AE0020F71130F6138883A88220F509F6A8836A
:0B03BE007583002280FEF280F5F02223
:10003B007800E84400600A790175A000E4F309D860
:10004B00FC7800E84400600C7900900001E4F0A318
:04005B00D8FCD9FAFA
:0D0006007581201203E5E58260030200030E
:1003C90020F71430F6148883A88220F507E6A8835D
:1003D90075830022E280F7E49322E02275820022ED
:00000001FF
